:060368000148A50149F166
:0703EA00438F03E4FD41FB1A
:0401AD008C418D42B2
:1001B1008B438A448945754602754700E5471547D3
:1001C100AE46700215464E601E438F017843E475BA
:1001D100F001511431E9FDAF42AE4151FB0542E559
:0701E1004270D9054180D5F1
:0101E80022F4
:03036E00010A0081
:0703F1007B017A0079002274
:100075007F01E4F53FF540901BFF93643D7028E553
:1000850082158270021583E493B4C21BE582158242
:1000950070021583E493B4A50EE5821582700215EE
:1000A50083E493B41B011F30870AE5EF20E107E5E0
:1000B500EF30E6027F01EF7002910071E271A1BF9E
:1000C50070FB7B007A00790B51817B007A00790BFC
:1000D50051AA8F2BE510F508E50FF509E50DF53F5C
:1000E500E50CF5407D81AF2B5158E50A7024E52BD1
:1000F5006472601E71F151D38F2B7D825158E50AD0
:100105007010AF40AE3F71EA71F1AD40AC3F31AD1B
:1001150080B8E4F548F549E50A6003E4F50A75EFAA
:0301250012809AAB
:10025800EF64706009EF64726004750A1222ED247D
:100268007E701571F17D007C025124EF65097003E1
:08027800EE65086003750A1130
:01028000225B
:02000300810377
:02000B0081066C
:02001300810961
:02001B00810C56
:02002300810F4B
:02002B00811240
:02003300811535
:02003B0081182A
:02004B00811E14
:02005300812109
:02005B008124FE
:020063008127F3
:02007300812DDD
:020000002128B5
:0501280075814921680A
:10037100132C83130001330101FC0100000400FF71
:050381001B0025010036
:090065007B007A0079447D012240
:060281008B418A42894313
:100287007544807B007A0079447D017187AB41AA70
:1002970042A9437D0E7C007147AB41AA42A9433175
:0202A700E9FF6D
:0102A9002232
:0602AA008B418A428943EA
:1002B0007544817B007A0079447D017187AB41AA46
:1002C00042A9437D067C007147AB41AA42A9433154
:0202D000E9FF44
:0102D2002209
:0602D3008B418A428943C1
:1002D9007544821165718711657C007147AB41AA2C
:1002E90042A9437D007C02714711657C007147AFCB
:0102F90044C0
:0102FA0022E1
:1003A1007B007A00792C7D1371877B007A0079417B
:0803B1007D017C007147AF41A2
:0103B9002221
:100387008B458A4689477845E475F001511431E970
:09039700F5993099FDC299DDEDE4
:0103A000223A
:100347008B458A4689473098137845E475F0015103
:1003570014E5995102C298ED1D70011CED4C70E631
:010367002273
:1002FB008F828E83D3E58294FFE583941B5018C3C2
:10030B00E5839404401175FFA075EF028548B7850E
:08031B0049B7EDF0538FFC22FD
:0400050053D9BF22EA
:0803E2001105113D71D261BA51
:0A003D0075B28375FF8075EF022293
:1003D20075A41075A50475D40375E10175E2402278
:1003BA00759810758D96538EF4438E08858D8B53E0
:0803CA00890F438920D28E2225
:0A0224008B418A4289438C448D45CA
:10022E00E4FFFEF546F547C3E5479545E54695449B
:10023E0050177841E475F001511431E9FD71230531
:09024E0047E54770E2054680DE39
:010257002284
:10032300ED6207E4FDEF30E00FEEC313FEEF13FFC2
:100333006307086306848007EEC313FEEF13FF0D04
:03034300BD08E210
:010346002294
:10012D00020075E493A3F8E493A34003F68001F273
:10013D0008DFF48029E493A3F85407240CC8C333D3
:10014D00C4540F4420C8834004F456800146F6DFA2
:10015D00E4800B0102040810204080900368E47EC7
:10016D00019360BCA3FF543F30E509541FFEE49397
:10017D00A360010ECF54C025E060A840B8E493A35E
:10018D00FAE493A3F8E493A3C8C582C8CAC583CA89
:10019D00F0A3C8C582C8CAC583CADFE9DEE780BE41
:010386000076
:1001E900BB010689828A83E0225002E722BBFE0214
:0901F900E32289828A83E4932247
:10020200BB010689828A83F0225002F722BBFE01DB
:02021200F322D5
:10021400FAE6FB0808E6F925F0F618E6CA3AF622EB
:00000001FF
