:060327000148000149003D
:0703EF00438F03E4FD41967A
:0401BA008C418D42A5
:1001BE008E438F44754502754600E5461546AE459D
:1001CE00700215454E6024438F010542E542AE4153
:1001DE007002054114FF0544E544AC43700205432B
:0B01EE0014F5828C83E0FD519680CF59
:0101F90022E3
:03032D00010A00C2
:100075007F01E4F53FF540901BFF93643D7028E553
:1000850082158270021583E493B4C21BE582158242
:1000950070021583E493B4A50EE5821582700215EE
:1000A50083E493B41B011F30870AE5EF20E107E5E0
:1000B500EF30E6027F01EF70029100116571CEBF4E
:1000C50070FB71BC8F2B7D805169E50A70518510DD
:1000D5004885114971648F2BE510F508E50FF50981
:1000E500E50DF53FE50CF5407D81AF2B5169E50A3E
:1000F5007028E52B647260227E007F0051BE8F2B35
:100105007D825169E50A7012AF40AE3F71EF7E0006
:100115007F00AD40AC3F31BA80BAE4F548F549E51A
:100125000A6008FF71948F2BE4F50A75EF12808D34
:10026900EF64706009EF64726004750A1222ED246C
:100279007E70197B017A0079007D007C025135EF8F
:0C02890065097003EE65086003750A113A
:010295002246
:02000300810377
:02000B0081066C
:02001300810961
:02001B00810C56
:02002300810F4B
:02002B00811240
:02003300811535
:02003B0081182A
:02004B00811E14
:02005300812109
:02005B008124FE
:020063008127F3
:02007300812DDD
:020000002135A8
:050135007581492175F0
:10033000132C83130001330101FC0100000400FFB2
:050340001B0025010077
:1003A8007B007A00790B7C00227A0079437B007D00
:0403B800017C0022A2
:1003BC007541807F417D0171467D0E71A87106AF3C
:0103CC000B25
:0103CD00220D
:100364007541817F417D0171467B007A00790B7D67
:07037400067C007106AF0BCF
:01037B00225F
:0402BE008E418F429C
:1002C2007543827F437D01714671B17106AA41A9CE
:0F02D200427B017D007C02710671B17106AF4362
:0102E10022FA
:1003CE007F2C7D1371467A00794171B57106AF416C
:0103DE0022FC
:10039400750B848F0C7F0B7D0271467D0171A871F2
:0403A40006AF0B2273
:10034600A90775440075450089467844E475F001AF
:0D035600512531FAF5993099FDC299DDED80
:010363002277
:100306008B448A4589463098137844E475F0015148
:1003160025E5995113C298ED1D70011CED4C70E650
:0103260022B4
:100296008F828E83D3E58294FFE583941B5018C327
:1002A600E5839404401175FFA075EF028548B78574
:0802B60049B7EDF0538FFC2263
:0400050053D9BF22EA
:080065001105113D71DF617C02
:0A003D0075B28375FF8075EF022293
:1003DF0075A41075A50475D40375E10175E240226B
:10037C00759810758D96538EF4438E08858D8B531E
:08038C00890F438920D28E2263
:0A0235008B418A4289438C448D45B9
:10023F00E4FFFEF546F547C3E5479545E54695448A
:10024F0050177841E475F001512531FAFD51E2055F
:09025F0047E54770E2054680DE28
:010268002273
:1002E200ED6207E4FDEF30E00FEEC313FEEF13FF04
:1002F2006307086306848007EEC313FEEF13FF0D46
:03030200BD08E251
:0103050022D5
:10013A00020075E493A3F8E493A34003F68001F266
:10014A0008DFF48029E493A3F85407240CC8C333C6
:10015A00C4540F4420C8834004F456800146F6DF95
:10016A00E4800B0102040810204080900327E47EFB
:10017A00019360BCA3FF543F30E509541FFEE4938A
:10018A00A360010ECF54C025E060A840B8E493A351
:10019A00FAE493A3F8E493A3C8C582C8CAC583CA7C
:1001AA00F0A3C8C582C8CAC583CADFE9DEE780BE34
:0103450000B7
:1001FA00BB010689828A83E0225002E722BBFE0203
:09020A00E32289828A83E4932235
:10021300BB010689828A83F0225002F722BBFE01CA
:02022300F322C4
:10022500FAE6FB0808E6F925F0F618E6CA3AF622DA
:00000001FF
