:060316000148000149004E
:0703DE00438F03E4FD41859C
:0401A9008C418D42B6
:1001AD008E438F44754502754600E5461546AE45AE
:1001BD00700215454E6024438F010542E542AE4164
:1001CD007002054114FF0544E544AC43700205433C
:0B01DD0014F5828C83E0FD518580CF7B
:0101E80022F4
:03031C00010A00D3
:100075007F01E4F53FF5407DFC7C1B8D828C8393ED
:10008500641B70120493B4A50D740293B4C2077473
:100095000393B43D011F30870AE5EF20E107E5EF43
:1000A50030E6027F01EF70029100116571BDBF70EE
:1000B500FB71AB8F2B7D805158E50A705185104837
:1000C50085114971538F2BE510F508E50FF509E505
:1000D5000DF53FE50CF5407D81AF2B5158E50A70D4
:1000E50028E52B647260227E007F0051AD8F2B7D49
:1000F500825158E50A7012AF40AE3F71DE7E007F37
:1001050000AD40AC3F31A980BAE4F548F549E50AB0
:0F0115006008FF71838F2BE4F50A75EF12808D60
:10025800EF64706009EF64726004750A1222ED247D
:100268007E70197B017A0079007D007C025124EFB1
:0C02780065097003EE65086003750A114B
:010284002257
:02000300810377
:02000B0081066C
:02001300810961
:02001B00810C56
:02002300810F4B
:02002B00811240
:02003300811535
:02003B0081182A
:02004B00811E14
:02005300812109
:02005B008124FE
:020063008127F3
:02007300812DDD
:020000002124B9
:05012400758149216412
:10031F00132C83130001330101FC0100000400FFC3
:05032F001B0025010088
:100397007B007A00790B7C00227A0079437B007D11
:0403A700017C0022B3
:1003AB007541807F417D0171357D0E719751F5AFA0
:0103BB000B36
:0103BC00221E
:100353007541817F417D0171357B007A00790B7D89
:07036300067C0051F5AF0B11
:01036A002270
:0402AD008E418F42AD
:1002B1007543827F437D01713571A051F5AA41A932
:0F02C100427B017D007C0251F571A051F5AF43E6
:0102D000220B
:1003BD007F2C7D1371357A00794171A451F5AF41D0
:0103CD00220D
:10038300750B848F0C7F0B7D0271357D0171975145
:04039300F5AF0B2295
:10033500A90775440075450089467844E475F001C0
:0D034500511431E9F5993099FDC299DDEDB3
:010352002288
:1002F5008B448A4589463098137844E475F001515A
:1003050014E5995102C298ED1D70011CED4C70E683
:0103150022C5
:100285008F828E83D3E58294FFE583941B5018C338
:10029500E5839404401175FFA075EF028548B78585
:0802A50049B7EDF0538FFC2274
:0400050053D9BF22EA
:080065001105113D71CE616B24
:0A003D0075B28375FF8075EF022293
:1003CE0075A41075A50875D40375E10175E2402278
:10036B00759810758D96538EF4438E08858D8B532F
:08037B00890F438920D28E2274
:0A0224008B418A4289438C448D45CA
:10022E00E4FFFEF546F547C3E5479545E54695449B
:10023E0050177841E475F001511431E9FD51D105A3
:09024E0047E54770E2054680DE39
:010257002284
:1002D100ED6207E4FDEF30E00FEEC313FEEF13FF15
:1002E1006307086306848007EEC313FEEF13FF0D57
:0302F100BD08E263
:0102F40022E7
:10012900020075E493A3F8E493A34003F68001F277
:1001390008DFF48029E493A3F85407240CC8C333D7
:10014900C4540F4420C8834004F456800146F6DFA6
:10015900E4800B0102040810204080900316E47E1D
:10016900019360BCA3FF543F30E509541FFEE4939B
:10017900A360010ECF54C025E060A840B8E493A362
:10018900FAE493A3F8E493A3C8C582C8CAC583CA8D
:10019900F0A3C8C582C8CAC583CADFE9DEE780BE45
:0103340000C8
:1001E900BB010689828A83E0225002E722BBFE0214
:0901F900E32289828A83E4932247
:10020200BB010689828A83F0225002F722BBFE01DB
:02021200F322D5
:10021400FAE6FB0808E6F925F0F618E6CA3AF622EB
:00000001FF
