:0C003D00850B08850C09E4F50BF50C227E
:10026C00850E5A113D438F03110DE55A7F00FEE4B4
:03027C00FD21322F
:10016500755D10850D5B850E5A850F5C113D110D72
:10017500AF5C155CEF6019438F01A85DE6FDAF5BD1
:10018500AE5A3132055D055BE55B70E4055A80E0EA
:010195002247
:100075007F01901DFFE493643D7028E58215827031
:10008500021583E493B4C21BE582158270021583C1
:10009500E493B4A50EE582158270021583E493B44A
:1000A5001B011F30870AE5EF20E107E5EF30E60287
:1000B5007F01EF70025100519E7F061100E50A2471
:1000C500FE601614601724FE601724057017110DC5
:1000D5007F01110075EF12800E516C800A31658029
:1000E500061115800211257F011100E4F508F509B7
:0200F50080C7C2
:04000D00E4F53222C2
:04001500753203221B
:04001D007532012215
:04002500753202220C
:020003004103B7
:02000B004106AC
:020013004109A1
:02001B00410C96
:02002300410F8B
:02002B00411280
:02003300411575
:02003B0041186A
:02004B00411E54
:02005300412149
:02005B0041243E
:02006300412733
:02007300412D1D
:020000000105F8
:05000500758172017518
:0B0065007A00796C7B007D017C00229A
:0601C1008B618A62896374
:1001C7007564807A0079641169510CAB61AA62A9E0
:1001D700637D0E7C00512FAB61AA62A96311F7FF03
:0101E70022F5
:060196008B658A66896793
:10019C007568817B007A0079687D017C00510CAB1D
:1001AC0065AA66A9677D067C00512FAB65AA66A976
:0401BC006711F7FFD1
:0101C000221C
:0601E8008B698A6A896B35
:1001EE00756C821165510C1165512FAB69AA6AA904
:0D01FE006B7D007C02512F1165512FAF6CFD
:01020B0022D0
:10020C008B6D8A6E896F786DE475F001312211F770
:10021C00F5993099FDC299ED1DAE0470011C4E701C
:02022C00E5FFEC
:01022E0022AD
:10022F008B708A7189723098137870E475F0013190
:10023F0022E5993110C298ED1D70011CED4C70E64E
:01024F00FFAF
:01025000228B
:100132008E5E8F5F8D60D3E55F94FFE55E941D5008
:1001420007C3E55E94045002011D75FFA075EF021E
:100152008508B78509B7855F82855E83E560F053C0
:030162008FFC22ED
:04002D0053D9BF22C2
:0A029E00112D51A8517F5151418FDD
:0A02A80075B28375FF8075EF022226
:10027F0075A41075A50475D40375E10175E24022CC
:0F028F00758C1B758A17438901438E02D2A922F1
:10025100759810758D96538EF4438E08858D8B534A
:0B026100890F438920D28E43B8102281
:1000F700BB010689828A83E0225002E722BBFE0207
:09010700E32289828A83E4932239
:10011000BB010689828A83F0225002F722BBFE01CE
:02012000F322C8
:10012200FAE6FB0808E6F925F0F618E6CA3AF622DE
:00000001FF
